{
  "address": "0x802f1E3f5E99924ccbb8bF762B32d8A2836806Fa",
  "abi": [
    {
      "inputs": [],
      "name": "ReentrancyGuardReentrantCall",
      "type": "error"
    },
    {
      "inputs": [
        {
          "internalType": "address",
          "name": "token",
          "type": "address"
        }
      ],
      "name": "SafeERC20FailedOperation",
      "type": "error"
    },
    {
      "anonymous": false,
      "inputs": [
        {
          "indexed": true,
          "internalType": "address",
          "name": "payer",
          "type": "address"
        },
        {
          "indexed": true,
          "internalType": "address",
          "name": "merchant",
          "type": "address"
        },
        {
          "indexed": true,
          "internalType": "address",
          "name": "token",
          "type": "address"
        },
        {
          "indexed": false,
          "internalType": "uint256",
          "name": "amount",
          "type": "uint256"
        }
      ],
      "name": "Deposited",
      "type": "event"
    },
    {
      "anonymous": false,
      "inputs": [
        {
          "indexed": true,
          "internalType": "address",
          "name": "merchant",
          "type": "address"
        },
        {
          "indexed": true,
          "internalType": "address",
          "name": "token",
          "type": "address"
        },
        {
          "indexed": false,
          "internalType": "uint256",
          "name": "amount",
          "type": "uint256"
        }
      ],
      "name": "Withdrawn",
      "type": "event"
    },
    {
      "inputs": [
        {
          "internalType": "address[]",
          "name": "_merchants",
          "type": "address[]"
        },
        {
          "internalType": "address[]",
          "name": "_tokens",
          "type": "address[]"
        },
        {
          "internalType": "uint256[]",
          "name": "_amounts",
          "type": "uint256[]"
        }
      ],
      "name": "deposit",
      "outputs": [],
      "stateMutability": "payable",
      "type": "function"
    },
    {
      "inputs": [
        {
          "internalType": "address",
          "name": "_from",
          "type": "address"
        },
        {
          "internalType": "address[]",
          "name": "_merchants",
          "type": "address[]"
        },
        {
          "internalType": "address[]",
          "name": "_tokens",
          "type": "address[]"
        },
        {
          "internalType": "uint256[]",
          "name": "_amounts",
          "type": "uint256[]"
        }
      ],
      "name": "depositFor",
      "outputs": [],
      "stateMutability": "payable",
      "type": "function"
    },
    {
      "inputs": [
        {
          "internalType": "address",
          "name": "",
          "type": "address"
        },
        {
          "internalType": "address",
          "name": "",
          "type": "address"
        }
      ],
      "name": "merchantBalances",
      "outputs": [
        {
          "internalType": "uint256",
          "name": "",
          "type": "uint256"
        }
      ],
      "stateMutability": "view",
      "type": "function"
    },
    {
      "inputs": [
        {
          "internalType": "address",
          "name": "",
          "type": "address"
        },
        {
          "internalType": "address",
          "name": "",
          "type": "address"
        }
      ],
      "name": "merchantHasToken",
      "outputs": [
        {
          "internalType": "bool",
          "name": "",
          "type": "bool"
        }
      ],
      "stateMutability": "view",
      "type": "function"
    },
    {
      "inputs": [
        {
          "internalType": "address",
          "name": "",
          "type": "address"
        },
        {
          "internalType": "uint256",
          "name": "",
          "type": "uint256"
        }
      ],
      "name": "merchantTokens",
      "outputs": [
        {
          "internalType": "address",
          "name": "",
          "type": "address"
        }
      ],
      "stateMutability": "view",
      "type": "function"
    },
    {
      "inputs": [
        {
          "internalType": "address",
          "name": "_merchant",
          "type": "address"
        }
      ],
      "name": "viewEscrow",
      "outputs": [
        {
          "internalType": "address[]",
          "name": "tokens",
          "type": "address[]"
        },
        {
          "internalType": "uint256[]",
          "name": "balances",
          "type": "uint256[]"
        }
      ],
      "stateMutability": "view",
      "type": "function"
    },
    {
      "inputs": [],
      "name": "withdraw",
      "outputs": [],
      "stateMutability": "nonpayable",
      "type": "function"
    },
    {
      "stateMutability": "payable",
      "type": "receive"
    }
  ],
  "transactionHash": "0x11d28c704135b6cf223dbcc428dceac73a77b0f07c99e50e9384407eea4fe85a",
  "args": [],
  "numDeployments": 1,
  "solcInputHash": "cbacd29a5d791d9f96579ae07e16c893",
  "bytecode": "0x608060405234801561001057600080fd5b5060016000556111c3806100256000396000f3fe6080604052600436106100745760003560e01c80639019fe151161004e5780639019fe15146100e15780639643ffbe1461012c57806396b8118914610172578063b11092c2146101aa57600080fd5b80631800b604146100805780633ccfd60b146100b75780636be795bd146100ce57600080fd5b3661007b57005b600080fd5b34801561008c57600080fd5b506100a061009b366004610e86565b6101bd565b6040516100ae929190610ea8565b60405180910390f35b3480156100c357600080fd5b506100cc61030f565b005b6100cc6100dc366004610f78565b610590565b3480156100ed57600080fd5b5061011c6100fc366004611023565b600360209081526000928352604080842090915290825290205460ff1681565b60405190151581526020016100ae565b34801561013857600080fd5b50610164610147366004611023565b600160209081526000928352604080842090915290825290205481565b6040519081526020016100ae565b34801561017e57600080fd5b5061019261018d366004611056565b6106e1565b6040516001600160a01b0390911681526020016100ae565b6100cc6101b8366004611080565b610719565b6001600160a01b038116600090815260026020908152604080832080548251818502810185019093528083526060948594909392919083018282801561022c57602002820191906000526020600020905b81546001600160a01b0316815260019091019060200180831161020e575b505050505090506000815167ffffffffffffffff81111561024f5761024f61111a565b604051908082528060200260200182016040528015610278578160200160208202803683370190505b50905060005b8251811015610304576001600160a01b038616600090815260016020526040812084519091908590849081106102b6576102b6611130565b60200260200101516001600160a01b03166001600160a01b03168152602001908152602001600020548282815181106102f1576102f1611130565b602090810291909101015260010161027e565b509094909350915050565b610317610821565b3360008181526002602090815260408083208054825181850281018501909352808352919290919083018282801561037857602002820191906000526020600020905b81546001600160a01b0316815260019091019060200180831161035a575b50505050509050600080600090505b82518110156105335760008382815181106103a4576103a4611130565b6020908102919091018101516001600160a01b038088166000908152600184526040808220928416825291909352822054909250908190036103e757505061052b565b6001600160a01b0380871660009081526001602081815260408084209487168085529490915282209190915594506104c7576000866001600160a01b03168260405160006040518083038185875af1925050503d8060008114610466576040519150601f19603f3d011682016040523d82523d6000602084013e61046b565b606091505b50509050806104c15760405162461bcd60e51b815260206004820152601a60248201527f457363726f773a206e61746976652078666572206661696c656400000000000060448201526064015b60405180910390fd5b506104db565b6104db6001600160a01b038316878361084b565b816001600160a01b0316866001600160a01b03167fd1c19fbcd4551a5edfb66d43d2e337c04837afda3482b42bdf569a8fccdae5fb8360405161052091815260200190565b60405180910390a350505b600101610387565b50806105815760405162461bcd60e51b815260206004820152601b60248201527f457363726f773a206e6f7468696e6720746f207769746864726177000000000060448201526064016104b8565b50505061058e6001600055565b565b610598610821565b6001600160a01b0387166105df5760405162461bcd60e51b815260206004820152600e60248201526d0457363726f773a2066726f6d3d360941b60448201526064016104b8565b6105ed8686868686866108af565b60006105fb85858585610a28565b90508034146106485760405162461bcd60e51b8152602060048201526019602482015278115cd8dc9bddce88189859081b985d1a5d9948185b5bdd5b9d603a1b60448201526064016104b8565b60005b868110156106cc576106c488888381811061066857610668611130565b905060200201602081019061067d9190610e86565b87878481811061068f5761068f611130565b90506020020160208101906106a49190610e86565b8686858181106106b6576106b6611130565b905060200201358c33610aa3565b60010161064b565b50506106d86001600055565b50505050505050565b600260205281600052604060002081815481106106fd57600080fd5b6000918252602090912001546001600160a01b03169150829050565b610721610821565b61072f8686868686866108af565b600061073d85858585610a28565b905080341461078a5760405162461bcd60e51b8152602060048201526019602482015278115cd8dc9bddce88189859081b985d1a5d9948185b5bdd5b9d603a1b60448201526064016104b8565b60005b8681101561080d576108058888838181106107aa576107aa611130565b90506020020160208101906107bf9190610e86565b8787848181106107d1576107d1611130565b90506020020160208101906107e69190610e86565b8686858181106107f8576107f8611130565b9050602002013533610beb565b60010161078d565b50506108196001600055565b505050505050565b60026000540361084457604051633ee5aeb560e01b815260040160405180910390fd5b6002600055565b6040516001600160a01b038381166024830152604482018390526108aa91859182169063a9059cbb906064015b604051602081830303815290604052915060e01b6020820180516001600160e01b038381831617835250505050610d32565b505050565b84831480156108bd57508281145b6109095760405162461bcd60e51b815260206004820152601760248201527f457363726f773a206c656e677468206d69736d6174636800000000000000000060448201526064016104b8565b846109465760405162461bcd60e51b815260206004820152600d60248201526c457363726f773a20656d70747960981b60448201526064016104b8565b60005b858110156106d857600087878381811061096557610965611130565b905060200201602081019061097a9190610e86565b6001600160a01b0316036109c55760405162461bcd60e51b81526020600482015260126024820152710457363726f773a206d65726368616e743d360741b60448201526064016104b8565b60008383838181106109d9576109d9611130565b9050602002013511610a205760405162461bcd60e51b815260206004820152601060248201526f0457363726f773a20616d6f756e743d360841b60448201526064016104b8565b600101610949565b6000805b84811015610a9a576000868683818110610a4857610a48611130565b9050602002016020810190610a5d9190610e86565b6001600160a01b031603610a9257838382818110610a7d57610a7d611130565b9050602002013582610a8f9190611146565b91505b600101610a2c565b50949350505050565b6001600160a01b038416610b42576001600160a01b03808616600090815260016020908152604080832093881683529290529081208054859290610ae8908490611146565b90915550610af890508585610da3565b836001600160a01b0316856001600160a01b0316826001600160a01b031660008051602061116e83398151915286604051610b3591815260200190565b60405180910390a4610be4565b610b576001600160a01b038516833086610e31565b6001600160a01b03808616600090815260016020908152604080832093881683529290529081208054859290610b8e908490611146565b90915550610b9e90508585610da3565b836001600160a01b0316856001600160a01b0316836001600160a01b031660008051602061116e83398151915286604051610bdb91815260200190565b60405180910390a45b5050505050565b6001600160a01b038316610c8a576001600160a01b03808516600090815260016020908152604080832093871683529290529081208054849290610c30908490611146565b90915550610c4090508484610da3565b826001600160a01b0316846001600160a01b0316826001600160a01b031660008051602061116e83398151915285604051610c7d91815260200190565b60405180910390a4610d2c565b610c9f6001600160a01b038416823085610e31565b6001600160a01b03808516600090815260016020908152604080832093871683529290529081208054849290610cd6908490611146565b90915550610ce690508484610da3565b826001600160a01b0316846001600160a01b0316826001600160a01b031660008051602061116e83398151915285604051610d2391815260200190565b60405180910390a45b50505050565b600080602060008451602086016000885af180610d55576040513d6000823e3d81fd5b50506000513d91508115610d6d578060011415610d7a565b6001600160a01b0384163b155b15610d2c57604051635274afe760e01b81526001600160a01b03851660048201526024016104b8565b6001600160a01b0380831660009081526003602090815260408083209385168352929052205460ff16610e2d576001600160a01b038083166000818152600360209081526040808320948616808452948252808320805460ff1916600190811790915593835260028252822080549384018155825290200180546001600160a01b03191690911790555b5050565b6040516001600160a01b038481166024830152838116604483015260648201839052610d2c9186918216906323b872dd90608401610878565b80356001600160a01b0381168114610e8157600080fd5b919050565b600060208284031215610e9857600080fd5b610ea182610e6a565b9392505050565b604080825283519082018190526000906020906060840190828701845b82811015610eea5781516001600160a01b031684529284019290840190600101610ec5565b5050508381038285015284518082528583019183019060005b81811015610f1f57835183529284019291840191600101610f03565b5090979650505050505050565b60008083601f840112610f3e57600080fd5b50813567ffffffffffffffff811115610f5657600080fd5b6020830191508360208260051b8501011115610f7157600080fd5b9250929050565b60008060008060008060006080888a031215610f9357600080fd5b610f9c88610e6a565b9650602088013567ffffffffffffffff80821115610fb957600080fd5b610fc58b838c01610f2c565b909850965060408a0135915080821115610fde57600080fd5b610fea8b838c01610f2c565b909650945060608a013591508082111561100357600080fd5b506110108a828b01610f2c565b989b979a50959850939692959293505050565b6000806040838503121561103657600080fd5b61103f83610e6a565b915061104d60208401610e6a565b90509250929050565b6000806040838503121561106957600080fd5b61107283610e6a565b946020939093013593505050565b6000806000806000806060878903121561109957600080fd5b863567ffffffffffffffff808211156110b157600080fd5b6110bd8a838b01610f2c565b909850965060208901359150808211156110d657600080fd5b6110e28a838b01610f2c565b909650945060408901359150808211156110fb57600080fd5b5061110889828a01610f2c565b979a9699509497509295939492505050565b634e487b7160e01b600052604160045260246000fd5b634e487b7160e01b600052603260045260246000fd5b8082018082111561116757634e487b7160e01b600052601160045260246000fd5b9291505056fe4174a9435a04d04d274c76779cad136a41fde6937c56241c09ab9d3c7064a1a9a2646970667358221220cb9afe469584ed6027068595f0a64ff4329da9edb999381e4588f3bf07bcebff64736f6c63430008160033",
  "devdoc": {
    "details": "Use address(0) to represent native token (ETH/FLOW/HBAR on EVM).",
    "errors": {
      "ReentrancyGuardReentrantCall()": [
        {
          "details": "Unauthorized reentrant call."
        }
      ],
      "SafeERC20FailedOperation(address)": [
        {
          "details": "An operation with an ERC-20 token failed."
        }
      ]
    },
    "kind": "dev",
    "methods": {
      "depositFor(address,address[],address[],uint256[])": {
        "params": {
          "_amounts": "Amounts per leg",
          "_from": "The token owner for ERC20 transferFrom (ignored for native legs)",
          "_merchants": "Merchant list (same length as _tokens/_amounts)",
          "_tokens": "Token addresses (use address(0) for native)"
        }
      }
    },
    "title": "Simple Escrow (Relayer-friendly)",
    "version": 1
  },
  "userdoc": {
    "kind": "user",
    "methods": {
      "depositFor(address,address[],address[],uint256[])": {
        "notice": "Relayer-friendly path. For ERC20, user must approve this Escrow as spender:         IERC20(token).approve(address(this), amount)"
      }
    },
    "notice": "Minimal escrow with:         - viewEscrow(merchant)         - deposit(...)           // user-pays gas path (unchanged)         - depositFor(from, ...)  // relayer path (Escrow is spender)         - withdraw()             // merchant pulls all their balances",
    "version": 1
  },
  "storageLayout": {
    "storage": [
      {
        "astId": 642,
        "contract": "contracts/Escrow.sol:Escrow",
        "label": "_status",
        "offset": 0,
        "slot": "0",
        "type": "t_uint256"
      },
      {
        "astId": 733,
        "contract": "contracts/Escrow.sol:Escrow",
        "label": "merchantBalances",
        "offset": 0,
        "slot": "1",
        "type": "t_mapping(t_address,t_mapping(t_address,t_uint256))"
      },
      {
        "astId": 738,
        "contract": "contracts/Escrow.sol:Escrow",
        "label": "merchantTokens",
        "offset": 0,
        "slot": "2",
        "type": "t_mapping(t_address,t_array(t_address)dyn_storage)"
      },
      {
        "astId": 744,
        "contract": "contracts/Escrow.sol:Escrow",
        "label": "merchantHasToken",
        "offset": 0,
        "slot": "3",
        "type": "t_mapping(t_address,t_mapping(t_address,t_bool))"
      }
    ],
    "types": {
      "t_address": {
        "encoding": "inplace",
        "label": "address",
        "numberOfBytes": "20"
      },
      "t_array(t_address)dyn_storage": {
        "base": "t_address",
        "encoding": "dynamic_array",
        "label": "address[]",
        "numberOfBytes": "32"
      },
      "t_bool": {
        "encoding": "inplace",
        "label": "bool",
        "numberOfBytes": "1"
      },
      "t_mapping(t_address,t_array(t_address)dyn_storage)": {
        "encoding": "mapping",
        "key": "t_address",
        "label": "mapping(address => address[])",
        "numberOfBytes": "32",
        "value": "t_array(t_address)dyn_storage"
      },
      "t_mapping(t_address,t_bool)": {
        "encoding": "mapping",
        "key": "t_address",
        "label": "mapping(address => bool)",
        "numberOfBytes": "32",
        "value": "t_bool"
      },
      "t_mapping(t_address,t_mapping(t_address,t_bool))": {
        "encoding": "mapping",
        "key": "t_address",
        "label": "mapping(address => mapping(address => bool))",
        "numberOfBytes": "32",
        "value": "t_mapping(t_address,t_bool)"
      },
      "t_mapping(t_address,t_mapping(t_address,t_uint256))": {
        "encoding": "mapping",
        "key": "t_address",
        "label": "mapping(address => mapping(address => uint256))",
        "numberOfBytes": "32",
        "value": "t_mapping(t_address,t_uint256)"
      },
      "t_mapping(t_address,t_uint256)": {
        "encoding": "mapping",
        "key": "t_address",
        "label": "mapping(address => uint256)",
        "numberOfBytes": "32",
        "value": "t_uint256"
      },
      "t_uint256": {
        "encoding": "inplace",
        "label": "uint256",
        "numberOfBytes": "32"
      }
    }
  }
}